:020000040000FA
:10000000300800206D020000810200008302000021
:10001000850200008502000085020000000000004B
:100020000000000000000000000000008502000049
:10003000850200000000000085020000850200002B
:100040008502000085020000850200008502000094
:100050008502000085020000850200008502000084
:100060008502000085020000850200008502000074
:100070008502000085020000850200008502000064
:100080008502000085020000850200008502000054
:100090008502000085020000850200008502000044
:1000A0008502000085020000850200008502000034
:1000B0008502000085020000850200008502000024
:1000C0008502000085020000850200008502000014
:1000D0008502000085020000850200008502000004
:1000E00085020000850200008502000085020000F4
:1000F00085020000850200008502000085020000E4
:1001000085020000850200008502000085020000D3
:1001100085020000850200008502000085020000C3
:1001200085020000850200008502000085020000B3
:1001300085020000850200008502000085020000A3
:1001400000000000000000000000000000000000AF
:100150008502000085020000850200008502000083
:10016000000000000000000000000000000000008F
:10017000000000000000000000000000000000007F
:10018000000000000000000000000000000000006F
:10019000000000000000000000000000000000005F
:1001A000000000000000000000000000000000004F
:1001B0008502000085020000850200008502000023
:1001C0008502000085020000850200008502000013
:1001D0008502000085020000850200008502000003
:1001E00085020000850200008502000085020000F3
:1001F00085020000850200008502000085020000E3
:100200008502000085020000850200000000000059
:1002100085020000850200008502000085020000C2
:1002200085020000850200008502000085020000B2
:1002300085020000850200008502000085020000A2
:100240008502000085020000850200008502000092
:100250008502000085020000850200008502000082
:100260008502000085020000850200004EF68850DD
:10027000CEF20000016841F47001016000F004B8A2
:10028000FEE7FEE7FEE70000DFF80CD000F006FE18
:1002900000480047D1040000300800200138FDD19B
:1002A00070470000EFF3108072B67047EFF31080D4
:1002B0007047EFF3108062B6704730BF704780F32D
:1002C00011887047EFF311807047000010B54FF0B0
:1002D0008070406C8169FE4888474FF08070406CA8
:1002E0008169FC4888474FF08070006A2021C26D08
:1002F000F94890474FF08070406A00231A46012168
:10030000C469F648A0474FF08070406A6B23002212
:100310000121046AF148A0474FF08070406A012132
:100320004269EE4890474FF08070406A01210269AF
:10033000EA48904710BD10B5002001F005F94FF0D4
:10034000101001F00BF9E64801F008F9E148401EF1
:1003500001F004F9DF48801C01F000F9E14800F0E9
:1003600001FF41F6050000F0FDFE1021DE4800F01F
:100370002CFF40214FF0402000F027FF0222D10146
:10038000DA4800F06CFF02228021D94800F067FFB4
:100390004FF4C3424FF48071D44800F078FF4FF41B
:1003A000C3428021D24800F072FF4FF4C3524FF491
:1003B0008371CE4800F07CFF4FF4C3528221CC48B9
:1003C00000F076FF01224021C84800F069FF0122B9
:1003D0000421C74800F064FF4FF48071C34800F067
:1003E00051FF8021C24800F04DFF4FF48071BF489B
:1003F00000F06EFF8021BE4800F06AFF10BD10B50E
:10040000B448801C01F0AAF800228021B64800F010
:10041000C0FD0A2301228021B34800F006FE02221B
:100420008021B14800F0D9FD8021AF4800F0C8FD1F
:10043000122000F0DBFE00F00BFF8021AA4800F044
:10044000BCFD10BD70B500240121A74800F0BEFD21
:1004500005462946A44800F0B0FD05F0800080B3B1
:1004600000F038FF40F6B831B0FBF1F000EB80004F
:1004700046003046FFF712FF00BF80219A4800F087
:1004800093FE0028F9D000F025FF40F6B831B0FB0C
:10049000F1F000EB800046003046FFF7FFFE8D488C
:1004A00001F05CF801218C4800F081FE01218A48AE
:1004B00000F07AFE04462CB901221146864800F06D
:1004C00092FE04E000220121834800F08CFE70BD02
:1004D00086B04FF0000A00200390814600BF0290D2
:1004E0000190844800F0A0FF00F031FA00F0ABFA70
:1004F00000F00CFAFFF783FF00221146012000F004
:1005000019FB10220021032000F014FB1E22002101
:100510003A2000F0CEFA00221146432000F0C9FA3A
:1005200008220021752000F0C4FA10220021722058
:1005300000F0BFFA18220021722000F0BAFA20223F
:100540000021652000F0B5FA282200216E2000F07D
:10055000B0FA30220021742000F0ABFA38220021DA
:100560005F2000F0A6FA40220021492000F0A1FA05
:10057000482200216E2000F09CFA502200213A20EF
:1005800000F097FA6F2201216D2000F092FA772295
:100590000121412000F08DFA00220221442000F0C8
:1005A00088FA08220221752000F083FA1022022125
:1005B000742000F07EFA18220221792000F079FAE6
:1005C000202202213A2000F074FA4822022125203C
:1005D00000F06FFA00F0FCFBFFF778FEFFF7ABFED0
:1005E00040E101213D4800F0B5FC00BF002201219F
:1005F0003A4800F095FC0028F8D00121374800F077
:100600008AFC05AA0121354800F0B1FC00BF64272F
:100610004FF0300800244FF47A70B7FBF0F0C0B20E
:100620008DF808006420B7FBF0F00A21B0FBF1F26E
:1006300001FB12008DF809000A20B7FBF0F0B0FBB7
:10064000F1F201FB12008DF80A000A20B7FBF0F16D
:1006500000FB11708DF80B00574511D000BF0CE066
:1006600004EB840149003231CAB202A9095D414458
:10067000C8B2012100F01DFA641C042CF0DBBA465C
:1006800004A800F0DAFB049E4FF47A70B6FBF0F099
:10069000C0B28DF808006420B6FBF0F00A21B0FB70
:1006A000F1F201FB12008DF809000A20B6FBF0F010
:1006B000B0FBF1F201FB12008DF80A000A20B6FB34
:1006C000F0F100FB11608DF80B000398864213E0F7
:1006D0000100100002000020005000400080034094
:1006E000014000F004100200006000400080024061
:1006F000009002404005800711D000240CE004EB7C
:10070000840149003231CAB202A9095D4144C8B22C
:10071000032100F0CEF9641C042CF0DB03965A216F
:1007200004984843052101EB10350A20B5FBF0F091
:10073000404400F0FF0B30220221584600F0B9F986
:100740000A20B5FBF0F100FB1150404400F0FF0B14
:1007500038220221584600F0ACF9A5EB0900012827
:1007600003D8A9EB050001282AD94FF49C606843FF
:1007700000EB800080006421B0FBF1FB4FF4C3422A
:100780004FF48071384800F082FD5A464FF483716F
:10079000354800F08DFD0821334800F099FD4FF4F5
:1007A000C3428021314800F072FD5A4682212F4811
:1007B00000F07EFD02212D4800F08AFDA94600BF11
:1007C0000020019001212A4800F0EEFC01900198E0
:1007D000F0B100220321452000F06BF9082203212B
:1007E0004E2000F066F910220321312000F061F95B
:1007F000202203214F2000F05CF9282203214E2003
:1008000000F057F930220321202000F052F91DE0BA
:1008100000220321452000F04CF9082203214E203C
:1008200000F047F910220321312000F042F9202284
:1008300003214F2000F03DF928220321462000F03B
:1008400038F930220321462000F033F900F042FD50
:100850000321B0FBF1FB4FF08070406CD0F88810A2
:1008600058468847BDE600000080024000900240E4
:100870000050004010B5044600220221FE4800F05E
:10088000B2FC40221146FD4800F0ADFC00BF4FF025
:1008900080708069816BFA4888470028F7D14FF053
:1008A0008070806921460268F548904700BF4FF08C
:1008B00080708069816BF24888470028F7D110BDAD
:1008C00010B5044600220221EB4800F08CFC002207
:1008D0004021EA4800F087FC00BF4FF0807080693B
:1008E000816BE74888470028F7D14FF08070806916
:1008F00021460268E248904700BF4FF0807080694F
:10090000816BDF4888470028F7D110BD70B50024FF
:100910001AE000220221D84800F065FC04F1B00181
:10092000C8B2FFF7CDFF1020FFF7CAFF0020FFF786
:10093000C7FF002504E00020FFF79CFF681CC5B23C
:10094000842DF8DB601CC4B2092CE2DB70BD7CB5E1
:100950004FF08070406C8169CA4888474FF08070C2
:10096000406C8169C748801C88474FF08070406C9C
:100970008169C4480E3088474FF08070006A0221B8
:10098000C26BBD4890474FF08070006A4021C26B37
:10099000BA4890474FF08070006A2021C26BBA4875
:1009A00090474FF08070406C8169B84888474FF09D
:1009B0008070406C8169B348801D88474FF080701B
:1009C000006A816EB24888474FF08070006A816E7D
:1009D000B04888474FF08070006A0921C26CAE4869
:1009E00090474FF08071496C086E8047054608209B
:1009F0004CF25031CDE900104005806900231A46C1
:100A0000294644689E48A0474FF0807080698168FD
:100A10009B4888477CBD002107E0002200E0521C73
:100A200040F2DE339A42FADB491C8142F5D370472B
:100A3000002105E0002200E0521C0A2AFCDB491CD0
:100A40008142F7D3704710B5002220218E4800F074
:100A5000CAFB3220FFF7DFFF202211468A4800F050
:100A6000C2FB3220FFF7D7FFE220FFF729FF2C203F
:100A7000FFF726FF2E20FFF723FF2F20FFF720FF91
:100A80002320FFF71DFF8120FFF71AFF2820FFF723
:100A900017FFA220FFF714FFC820FFF711FFA020C7
:100AA000FFF70EFFA620FFF70BFFAF20FFF708FFB1
:100AB00010BD2DE9F05F80460C461546A8F12000D8
:100AC000764901EB00192F464FEA251B772D02DDF1
:100AD0000020BDE8F09F032C01DD0020F9E700268F
:100AE00024E000220221644800F07DFBB02101EBEC
:100AF00044013144C8B2FFF7E3FE0BF00F0101F1EE
:100B00001000FFF7DDFE07F00F00FFF7D9FE4FF0F2
:100B1000000A07E099F80000FFF7ACFE09F10109AF
:100B20000AF1010ABAF1080FF4D3761C022ED8D3C9
:100B30000120CEE72DE9F05F80460C461546584867
:100B4000202101FB08092F464FEA251B6F2D02DDEE
:100B50000020BDE8F09F032C01DD0020F9E700260E
:100B600024E000220221444800F03DFBB02101EBCB
:100B700044013144C8B2FFF7A3FE0BF00F0101F1AD
:100B80001000FFF79DFE07F00F00FFF799FE4FF0F2
:100B9000000A07E099F80000FFF76CFE09F101096F
:100BA0000AF1010ABAF1100FF4D3761C022ED8D341
:100BB0000120CEE710B54FF08070406C816931485C
:100BC000801C88474FF08070406C81692D48801DE3
:100BD00088474FF08070006A0A230122802144690F
:100BE0002648A0474FF08070006A0A230122402166
:100BF00044692948A0474FF08070006A0A23012207
:100C0000802144692448A0474FF08070006A002288
:100C100080214368194898474FF08070006A00228D
:100C2000402143681C4898474FF08070006A0022BA
:100C3000802143681848984710BD10B54FF0807068
:100C4000006A8021C26A0D489047A0B94FF08071B8
:100C5000496C086E804740F6B831B0FBF1F000EB0C
:100C6000800044004FF08070406CD0F8881020461F
:100C7000884700BF16E033E00050004000600040AD
:100C800000B000400200002000400240031C00F0C1
:100C900001000300010C030000700040200100204F
:100CA000000000204FF08070006A8021C26A754801
:100CB00090470028DED04FF08071496C086E804765
:100CC00040F6B831B0FBF1F000EB800044004FF08B
:100CD0008070406CD0F8881020468847012010BDF5
:100CE0004FF08070006A4021C26A6748904788BB15
:100CF0004FF08071496C086E804740F6B831B0FB08
:100D0000F1F000EB800044004FF08070406CD0F8B0
:100D100088102046884700BF4FF08070006A40214D
:100D2000C26A594890470028F6D04FF08071496C4C
:100D3000086E804740F6B831B0FBF1F000EB800060
:100D400044004FF08070406CD0F8881020468847EF
:100D50000220C4E7FFE74FF08070006A8021C26A7A
:100D60004948904788BB4FF08071496C086E8047B6
:100D700040F6B831B0FBF1F000EB800044004FF0DA
:100D80008070406CD0F888102046884700BF4FF034
:100D90008070006A8021C26A3B4890470028F6D0E4
:100DA0004FF08071496C086E804740F6B831B0FB57
:100DB000F1F000EB800044004FF08070406CD0F800
:100DC000881020468847032089E7FFE7002086E750
:100DD00010B54FF08070406C81692C4888474FF007
:100DE0008070406C81692A4888474FF08070006AA3
:100DF0000121C26D274890474FF08070406A002360
:100E00001A461946C4692448A0474FF08070406ACA
:100E1000632300221146046A1F48A0474FF08070E8
:100E2000406A002142691C4890474FF08070406A38
:100E3000002102691848904710BD10B504464FF0D4
:100E40008070406A0021426B1348904700BF4FF00A
:100E50008070406A00221146C3680F4898470028F6
:100E6000F5D04FF08070406A002102690A4890472F
:100E70004FF08070406A2246002103680648984778
:100E800010BD000000600040007000400100100034
:100E9000100000200040024000800340064C074D37
:100EA00006E0E06840F0010394E80700984710343A
:100EB000AC42F6D3FFF7ECF92C1B00004C1B0000F2
:100EC00070B58C1810F8015B15F0070301D110F80C
:100ED000013B2A1106D110F8012B03E010F8016B39
:100EE00001F8016B5B1EF9D12B0705D40023521EBC
:100EF0000DD401F8013BFAE710F8013BCB1A921C24
:100F000003E013F8015B01F8015B521EF9D5A14221
:100F1000D8D3002070BD012202FA01F1C1607047F0
:100F200032B1C0684FF0011202FA01F10840704777
:100F3000406801228A4042F48032104010F4803F21
:100F400008BF704740F470204FF4803202FA01F17C
:100F5000884370470A4601F00F0101236FF30F0227
:100F600003FA01F11143826A11438162704700EB79
:100F7000411000F14001002003E08B6842F8043B7F
:100F8000401CCB6813F4807F18BF70470828F4D347
:100F90007047D0F8003412F0010F14BF0B438B439D
:100FA000C0F8003412F0020FD0F8202414BF11430F
:100FB00022EA0101C0F820147047C0F81C147047E1
:100FC000D0F810241143C0F810147047002914BF42
:100FD000D0F81804D0F814047047D0F8083412F090
:100FE000010F14BF0B438B43C0F80834D0F804340E
:100FF00012F0020F14BF0B438B43C0F80434D0F837
:101000000C3412F0040F14BF194323EA0101C0F895
:101010000C14D0F8381512F4803F14BF41F00101D0
:1010200021F00101C0F8381570472DE9F0030126C1
:101030004FF0000C0325C2F3411706FA0CF40C42E2
:1010400011D0D0F8C48F4FEA4C0405FA04F928EA0D
:101050000908C0F8C48FD0F8C48F07FA04F448EA2E
:101060000404C0F8C44F0CF1010C0CF0FF0CBCF1EF
:10107000080FE2D3D0F800C512F0010F14BF4CEAFC
:10108000010C2CEA010CC0F800C5D0F804C512F020
:10109000020F14BF4CEA010C2CEA010CC0F804C585
:1010A000D0F808C512F0040F14BF4CEA010C2CEA6A
:1010B000010CC0F808C5D0F818C512F0080F14BF0D
:1010C0004CEA010C2CEA010CC0F818C512F0100F04
:1010D000D0F83C2514BF0A438A43C0F83C25D0F819
:1010E0000C2513F0010F14BF0A438A43C0F80C25E6
:1010F000D0F8102513F0020F14BF0A438A43C0F83A
:101100001025D0F8142513F0040F14BF0A438A43A6
:10111000C0F81425D0F81C2513F0080F14BF0A439B
:101120008A43C0F81C25D0F8442513F4007F14BF6F
:101130000A438A43C0F84425D0F8402513F4407F81
:1011400014BF0A438A43C0F84025D0F82825002B55
:101150000CBF114322EA0101C0F82815BDE8F003D5
:10116000704700000E4AC0F30741D26E01238B4046
:101170001A420C4A1ABF02EBC101496852F83110F9
:10118000020AD1F82C354FF00F0C0CFA02FC00F0DB
:101190000F0023EA0C0390401843C1F82C05704758
:1011A00000E00F403C17000050F82100704730B5B8
:1011B0000C46054608230122FFF737FF2146284643
:1011C000BDE830400122FFF7E4BE30B50C460546CD
:1011D0000222FFF7DEFE21462846BDE83040082304
:1011E0000122FFF722BF40F821207047164904284A
:1011F00004BF086840F4803018D0052804BF086890
:1012000040F4003012D0062812D00F2815D0102834
:1012100038BF7047103800F01F01012202FA01F1B7
:1012200042090A4850F82200016070470860704780
:10123000086840F48020086070474FF0E0200169A2
:1012400041F002010161704724ED00E088180000C0
:1012500010B5FFF72EF8002818BF012010BD084474
:1012600001686FF352011143016012F0020F14BFC5
:10127000B0218C21016214BF4FF4306140F60C01A3
:1012800041627047425842F00102425070470844A0
:10129000016811F0020F14BF5108511E016170471F
:1012A000002A826814BF114322EA0101816070475D
:1012B00021F03F031844036813F0020F18BF5208CF
:1012C00003699A1A11F0010F14BFC261826170475D
:1012D0004160704770B44B4D2A6E296F11F0004F7A
:1012E00014BF01F0700002F03000202808BF46480B
:1012F00018D005DC88B1102808BF444812D009E096
:10130000302808BF47F230500CD0702808BF4FF487
:10131000004007D070BC002070477C203C4B00EAA6
:10132000121018584FF0FF3311F0004F02D011F493
:10133000006F06D001F0004C02F400645CEA040C7B
:1013400036D1D5F860C1D5F8644104F01F06C4F366
:101350000424641C761C16FB04F46400B0FBF4F057
:10136000CCF309044443CCF3892C00FB0CF0D5F8F2
:1013700010C004EB902042F480020CF4704CBCF5D9
:10138000804F08BF234B13D009DCBCF5005F08BFBA
:10139000214B0DD0BCF5405F08BF204B08E0BCF5E9
:1013A000E04F08BF1E4B03D0BCF5104F08BF1D4BCC
:1013B00012F4800F21D011F0004F19D011F0804F9E
:1013C00009D011F4006F0CD001F0004C02F400625F
:1013D0005CEA020205D0C1F3C551491CB0FBF1F033
:1013E0000BE04000C1F38651491CB0FBF1F004E072
:1013F000C2F3C351491CB0FBF1F0834238BF184619
:1014000070BC704700E00F4000093D000024F4006C
:10141000E0180000005A620200B4C40480F0FA022E
:1014200040787D01002D3101434B30B4196E1A6FA5
:1014300021F4800141F4006142F4006419661C67E4
:1014400021EA000212F0010F14D060F001021140F5
:101450009A159A651966D3F850C0D2021CF4807FA1
:1014600008D1521E04BF30BC7047D3F850C01CF4E2
:10147000807FF6D021F4FE6100F4FE621143DFF8B4
:10148000BCC024F0700222F0004200EA0C0C4CEACE
:10149000020200F0080C42EACC0219661A6700F456
:1014A000005C21F4005122F400524CEA01014CEAA4
:1014B00002024FF0400CC3F858C012F0004F08BFB2
:1014C00019661A6718BF196621F00101DFF870C0AC
:1014D00021F0F86100EA0C0C4CEA010122F0FC5208
:1014E00000F0FC5C4CEA020210F0804F08BF22F0D2
:1014F000804209D0DFF84CC022F4800200EA0C0CD4
:1015000041F480014CEA020210F4006F08BF4FF46E
:1015100000400AD1D3F868C11CF0010F01D1401E70
:10152000F8D121F4006122F4006219661A6730BC18
:101530001020FEF7B3BE000000E00F403000008036
:101540000100C0070000404003490A6E22F4F01277
:10155000104308667047000000E00F40C0F3072307
:101560000749C0B2194401F07043C1F3130143EAC3
:10157000411141EA800040F0007001220260704792
:1015800000E60F4002E008C8121F08C1002AFAD185
:1015900070477047002001E001C1121F002AFBD1F3
:1015A000704700000040004010000000008005402F
:1015B00010000000005000401100000000900540A5
:1015C00011000000006000401200000000A0054073
:1015D00012000000007000401300000000B0054041
:1015E00013000000004002401400000000C005404D
:1015F00014000000005002402E00000000D0054002
:101600002E000000006002402F00000000E00540B6
:101610002F000000007002403000000000F0054084
:101620003000000000D003404600000000000640EB
:101630004600000000100640470000000020064061
:1016400048000000003006407F00000000400640D7
:10165000800000000050064084000000006006404A
:101660008C00000000400040100000000080054099
:1016700010000000005000401100000000900540E4
:1016800011000000006000401200000000A00540B2
:1016900012000000007000401300000000B0054080
:1016A00013000000004002401400000000C005408C
:1016B00014000000005002402E00000000D0054041
:1016C0002E000000006002402F00000000E00540F6
:1016D0002F000000007002403000000000F00540C4
:1016E0003000000000D0034043000000000006402E
:1016F00043000000001006404400000000200640A7
:101700004500000000300640580000000040064040
:1017100059000000005006405C00000000600640D8
:1017200064000000007006406C000000008006406D
:101730006D000000009006407F0000000040004067
:1017400000800540005000400090054000600040CF
:1017500000A005400070004000B00540004002407D
:1017600000C005400050024000D00540006002402B
:1017700000E005400070024000F0054000D003404A
:101780000000064000100640001006400020064001
:101790000020064000300640003006400040064071
:1017A00000400640005006400050064000600640E1
:1017B0000060064000700640007006400080064051
:1017C00000800640009006400090064000070000A0
:1017D00000060000000500000004000000030000F7
:1017E00000020000000100000000000000000000F6
:1017F00018ED00E01CED00E020ED00E000E400E06A
:1018000004E400E008E400E00CE400E010E400E0A0
:1018100014E400E018E400E01CE400E020E400E050
:1018200024E400E028E400E02CE400E030E400E000
:1018300034E400E038E400E03CE400E040E400E0B0
:1018400044E400E048E400E04CE400E050E400E060
:1018500054E400E058E400E05CE400E060E400E010
:1018600064E400E068E400E06CE400E070E400E0C0
:1018700074E400E078E400E07CE400E080E400E070
:1018800084E400E088E400E000E100E004E100E03E
:1018900008E100E00CE100E010E100E080E100E0A0
:1018A00084E100E088E100E08CE100E090E100E00C
:1018B00000E200E004E200E008E200E00CE200E008
:1018C00010E200E080E200E084E200E088E200E074
:1018D0008CE200E090E200E000688909001C4E0EF6
:1018E00040420F0000201C0080841E000080250064
:1018F000999E36000040380000093D0000803E00FF
:1019000000004B00404B4C0000204E00808D5B00DF
:1019100000C05D000080700000127A0000007D00B1
:1019200080969800001BB7000080BB00C0E8CE0086
:10193000647ADA000024F4000000FA0080A81201A2
:10194000002D310100366E0140787D01400000001D
:1019500000000000000100003E0008000000000040
:1019600000010000A00000000200000000010000D3
:101970003454010000000000000100002B7006003C
:10198000000000000001000028000000000000002E
:10199000000100002700010000000000000100001D
:1019A00020000000000000000001000050000000C6
:1019B00002000000000100001AAC0000000000005E
:1019C0000001000017940900000000000001000061
:1019D000169805000000000000010000140000003F
:1019E000000000000001000013800800000000005B
:1019F00000010000A000000008000000000100003D
:101A0000100000000000000000010000280000009D
:101A1000020000000001000040000000040000007F
:101A20000001000060000000000000000001000054
:101A30005D000C00000000000001000050000000EC
:101A400000000000000100004E0002000000000045
:101A50000001000041AC0100000000000001000096
:101A60003C00000000000000000100003A80090076
:101A70000000000000010000300000000000000035
:101A8000000100002800000000000000000100002C
:101A90002700010000000000000100002360060094
:101AA00000000000000100002160080000000000AC
:101AB000000100001E000000000000000001000006
:101AC0001DC00400000000000001000050000000E4
:101AD00002000000000100001800000000000000EB
:101AE00000010000140000000000000000010000E0
:101AF0006000000004000000000100000024F40069
:101B000030003000005A6202910091000087930378
:101B1000D200D20000B4C4041301130100E1F505A2
:101B200054015401000E2707950195014C1B00003C
:101B30000000002030070000C00E0000AC1F0000B5
:101B40003007002000010000941500001C808088F0
:101B5000012AFF0575FA849C08227F361020403048
:101B60000F1BF848012AFF053AFC1E1B0702011B48
:101B70003F4201444740701CFE0282011AFE0423CA
:101B8000C38219352A400110087F4042444C60400E
:101B9000200F1022640C80444464554E445466C4A3
:101BA000150404FE011480403F12FF2B3F40411AF0
:101BB000F00A200BF090884F54A4544CC440161FD8
:101BC000100F081F2008141515FF151514500F804D
:101BD0004020F80704E4A4A4BFA4A4F6241AFF5EDE
:101BE0002A4A011B7F403011280CFE129292B2D279
:101BF00092D2B292DF80380F201F0484443F040445
:101C000004FF04040604A14A920133FF0219971A43
:101C10004D9D29A11C49446640200E100C2424240B
:101C20002526A4642404140C29DE3D0242827F0888
:101C30002A0332011172F84333301C100C06039151
:101C40002C40C07803111A04831903212D7088FCDD
:101C500008291E1820FF211EEF1308F033E0184D4D
:101C6000211C031E11338870000C101E212324191F
:101C700027211010160E3CE01804881C071820B00D
:101C80003D020418E0692C201807071F4080F080EF
:101C90004040B83D010F01022842F01D0101011F23
:101CA00004912B80B066B1191D2901913A30CE49BB
:101CB0002C146018043C6018061D1EE01008081063
:101CC000721F0F102020100FF05310F83620203F05
:101CD00020203C700808C21E3028242221441E30D7
:101CE00008888848082E1820202011CC3BC02032BC
:101CF00027070424243F241AF8202308084B19211D
:101D00002036E0108888184B0F11101E380808C8BC
:101D1000382021523F1A702E29608F1C2221212247
:101D20001C90111D31222211901961CAC0C26A8013
:101D3000C659081C40201050170102040810204A00
:101D40004001114A04012119152A403219251B04AA
:101D500002F21B7048D13AF0501A360F1EC030C83C
:101D600028E87028080718272423140B6F2A387EC8
:101D7000280D203C23020227382008F888889F4B32
:101D8000203FF01BC0303F1B083830191019781B5A
:101D900008F80F194039201B100F103E8888E808FA
:101DA0001010AC23201810112A035E294022382974
:101DB000402C221E024019A41809F808203F2101D6
:101DC0000121252A0852298129424149112EC0802A
:101DD00080807F0E2FF888C0281808501C012638F4
:101DE0002F2940292F29801B20301012F81AF814AF
:101DF00013203F190229204B30C0601A2074123F73
:101E00004BE010B06B0F10B029D01AF030198022BF
:101E10000179203F18242438504FC04C888870C066
:101E2000140C30204B7088C11738202121221C3A15
:101E3000189F4A188239A049D0112A1F90121F24D6
:101E40000878881BC838151C07380E60191A1AF84C
:101E5000201114033C0714073C0348140818688039
:101E60008068180820302C03032C30200838C82F35
:101E70005950298F29102F203826212020681145FC
:101E8000FE020202257F4040401A0CE0611C010660
:101E9000380B191D42FE191D527F1A04120211043B
:101EA0005A80011930D91D39162118081924222207
:101EB000223F20AB390F115F3F112020110E21313D
:101EC0001A0E104B2011104B88F8102A10B35940ED
:101ED0001A1F3F2B22130F16F0888888181A20D05B
:101EE00029D1497A21176B94949493603960190F22
:101EF0004C203F21F354809898793059121AC0270A
:101F000019D1193039311F203F24022D30212A08E0
:101F100012893069D7294B2903190BC96079A01997
:101F2000BF2B201FDD390F9C80FFA1E0191229D0A3
:101F30003BA0FF0C3950194112208A01C01B3324E9
:101F4000012A190F3AE0413952290F392349603CDF
:101F5000103F202C29053F010E3008060170291082
:101F600038080F300C030C300F2C49A14E312E0EC7
:101F700031200C29621D818E70183059D1215721D2
:101F8000302C22213055807C0202443F404072FFB9
:101F900039083C02027C8F5440403F000811060182
:0C1FA00001020204044A304CDAFF010088
:04000005000002896C
:00000001FF
